{
  "address": "0x5FbDB2315678afecb367f032d93F642f64180aa3",
  "abi": [
    {
      "inputs": [],
      "stateMutability": "nonpayable",
      "type": "constructor"
    },
    {
      "inputs": [
        {
          "internalType": "uint256",
          "name": "val",
          "type": "uint256"
        }
      ],
      "name": "executeWithPrice",
      "outputs": [
        {
          "internalType": "uint256",
          "name": "",
          "type": "uint256"
        }
      ],
      "stateMutability": "view",
      "type": "function"
    }
  ],
  "transactionHash": "0x3003c062534b4aeb8e89a759f764d1deb43e8801757454b1628cd154f728f0fd",
  "args": [],
  "solcInputHash": "5495dbeafcc29db5e241cf8806886b66",
  "bytecode": "0x608060405234801561001057600080fd5b50739326bfa02add2366b30bacb125260af6410313316000806101000a81548173ffffffffffffffffffffffffffffffffffffffff021916908373ffffffffffffffffffffffffffffffffffffffff1602179055506102d4806100746000396000f3fe608060405234801561001057600080fd5b506004361061002b5760003560e01c8063b2d8c2f514610030575b600080fd5b61004a60048036038101906100459190610165565b610060565b6040516100579190610214565b60405180910390f35b6000808060009054906101000a900473ffffffffffffffffffffffffffffffffffffffff1673ffffffffffffffffffffffffffffffffffffffff1663feaf968c6040518163ffffffff1660e01b815260040160a06040518083038186803b1580156100ca57600080fd5b505afa1580156100de573d6000803e3d6000fd5b505050506040513d601f19601f82011682018060405250810190610102919061018e565b50505091505080915050919050565b60008151905061012081610259565b92915050565b60008135905061013581610270565b92915050565b60008151905061014a81610270565b92915050565b60008151905061015f81610287565b92915050565b60006020828403121561017757600080fd5b600061018584828501610126565b91505092915050565b600080600080600060a086880312156101a657600080fd5b60006101b488828901610150565b95505060206101c588828901610111565b94505060406101d68882890161013b565b93505060606101e78882890161013b565b92505060806101f888828901610150565b9150509295509295909350565b61020e81610239565b82525050565b60006020820190506102296000830184610205565b92915050565b6000819050919050565b6000819050919050565b600069ffffffffffffffffffff82169050919050565b6102628161022f565b811461026d57600080fd5b50565b61027981610239565b811461028457600080fd5b50565b61029081610243565b811461029b57600080fd5b5056fea2646970667358221220cd8feef2331d4331fc1706941ce7c7f2bda20ccf09d0b87340bc15d0ecd033f664736f6c63430008040033",
  "devdoc": {
    "details": "An example of a contract that uses the most popular Chainlink Reference Data It is used for benchmarking gas costs",
    "kind": "dev",
    "methods": {},
    "title": "SampleChainlink",
    "version": 1
  },
  "userdoc": {
    "kind": "user",
    "methods": {
      "constructor": {
        "notice": "Network: Kovan Aggregator: ETH/USD Address: 0x9326BFA02ADD2366b30bacB125260Af641031331"
      },
      "executeWithPrice(uint256)": {
        "notice": "Returns the latest price"
      }
    },
    "version": 1
  },
  "storageLayout": {
    "storage": [
      {
        "astId": 2573,
        "contract": "contracts/samples/SampleChainlink.sol:SampleChainlink",
        "label": "priceFeed",
        "offset": 0,
        "slot": "0",
        "type": "t_contract(AggregatorV3Interface)2509"
      }
    ],
    "types": {
      "t_contract(AggregatorV3Interface)2509": {
        "encoding": "inplace",
        "label": "contract AggregatorV3Interface",
        "numberOfBytes": "20"
      }
    }
  }
}